:100000000C942A000C949A020C94C3020C94ED02F6
:100010000C9447000C9447000C94BA030C946803AA
:100020000C9491030C943F030C9447000C9416031A
:100030000C9447000C94E3030C9447000C940C04BC
:100040000C9447000C9447000C9447000C94470014
:100050000C94470011241FBECFE5D8E0DEBFCDBF12
:1000600010E0A0E6B0E0EEE6F8E002C005900D92E8
:10007000AC38B107D9F720E0ACE8B0E001C01D9280
:10008000A03AB207E1F70E941B010C9435040C94CE
:10009000000080E00E94BF0081E00E94BF0082E07B
:1000A0000E94DD0083E00C94DD0080E00E94DD0012
:1000B00081E00E94DD0082E00E94BF0083E00C949A
:1000C000BF0082E00E94DD0083E00E94DD0080E04E
:1000D0000E94A10081E00C94A10080E00E94BF007A
:1000E00081E00E94BF0082E00E94A10083E00C94A6
:1000F000A1000E94FB00813019F40E944900F9CF51
:100100000E940301813019F40E945500F9CF0E942A
:100110001301813019F40E946100F9CF0E940B0194
:10012000813019F40E946D00F9CF80E00E94A10097
:1001300081E00E94A10082E00E94A10083E00C9473
:10014000A1000F931F93CF93DF93D82F00E810E007
:10015000C0E0DC130AC060E0F80180810E94FE016B
:1001600060E0F80181810E94FE01CF5F0E5F1F4FAA
:10017000C63079F7DF91CF911F910F9108950F93BA
:100180001F93CF93DF93D82F00E810E0C0E0DC137B
:100190000AC061E0F80180810E94FE0160E0F80180
:1001A00081810E94FE01CF5F0E5F1F4FC63079F73D
:1001B000DF91CF911F910F9108950F931F93CF93CC
:1001C000DF93D82F00E810E0C0E0DC130AC060E045
:1001D000F80180810E94FE0161E0F80181810E94A6
:1001E000FE01CF5F0E5F1F4FC63079F7DF91CF91D1
:1001F0001F910F9108958AE10E947D0291E0811183
:1002000090E0892F08958CE10E947D0291E0811198
:1002100090E0892F08958DE10E947D0291E0811187
:1002200090E0892F08958BE10E947D0291E0811179
:1002300090E0892F08950E9420010E947900FDCF4F
:10024000E0E6F0E040E081E090E05191342F369517
:1002500036953695242F2770513009F443C020F08D
:10026000523009F482C0C5C0323001F1333061F13F
:10027000313071F05AB3BC0102C0660F771F2A9566
:10028000E2F79B01352F322B3ABB3BB320953DC0A3
:1002900057B3BC0102C0660F771F2A95E2F79B0196
:1002A000352F322B37BB38B320953EC054B3BC0139
:1002B00002C0660F771F2A95E2F79B01352F322B7C
:1002C00034BB35B320953FC051B3BC0102C0660FAB
:1002D000771F2A95E2F79B01352F322B31BB32B3C2
:1002E000209541C0323011F1333081F1313079F055
:1002F0005AB3BC0102C0660F771F2A95E2F79B0133
:100300002095352F32233ABB3BB3232342C057B34A
:10031000BC0102C0660F771F2A95E2F79B0120956A
:10032000352F322337BB38B3232343C054B3BC012A
:1003300002C0660F771F2A95E2F79B012095352FA3
:10034000322334BB35B3232325BB53C051B3BC0187
:1003500002C0660F771F2A95E2F79B012095352F83
:10036000322331BB32B3232343C0323021F1333047
:1003700089F1313081F05AB3BC0102C0660F771F9A
:100380002A95E2F79B01362F309535233ABB3BB3D4
:10039000232B2BBB2EC057B3BC0102C0660F771FA7
:1003A0002A95E2F79B01362F3095352337BB38B3BA
:1003B000232B28BB1EC054B3BC0102C0660F771F9D
:1003C0002A95E2F79B01362F3095352334BB35B3A0
:1003D000232BBACF51B3BC0102C0660F771F2A95F9
:1003E000E2F79B01362F3095352331BB32B3232BF7
:1003F00022BB4F5F403209F028CF0895982F969581
:100400009695969587706130C1F5913091F028F0FE
:100410009230D9F0933029F108954BB321E030E0C8
:10042000B90102C0660F771F8A95E2F7CB01842BD2
:1004300038C048B321E030E0B90102C0660F771F31
:100440008A95E2F7CB01842B3AC045B321E030E036
:10045000B90102C0660F771F8A95E2F7CB01842BA2
:100460003CC042B321E030E0B90102C0660F771F03
:100470008A95E2F7CB01842B3EC09130A1F028F0A1
:100480009230F9F0933059F108954BB321E030E008
:10049000B90102C0660F771F8A95E2F7CB018095FC
:1004A00084238BBB089548B321E030E0B90102C03A
:1004B000660F771F8A95E2F7CB018095842388BB6E
:1004C000089545B321E030E0B90102C0660F771FFF
:1004D0008A95E2F7CB018095842385BB089542B3CA
:1004E00021E030E0B90102C0660F771F8A95E2F77C
:1004F000CB018095842382BB0895282F2770869591
:1005000086958695813049F030F0823041F0833015
:1005100079F480B305C089B303C086B301C083B347
:1005200090E002C0959587952A95E2F7817008952D
:1005300080E008951F920F920FB60F9211242F930F
:100540003F934F935F936F937F938F939F93AF935B
:10055000BF93EF93FF93E0919000F091910030975B
:1005600009F00995FF91EF91BF91AF919F918F9104
:100570007F916F915F914F913F912F910F900FBE9F
:100580000F901F90189578941F920F920FB60F92AC
:1005900011242F933F934F935F936F937F938F9388
:1005A0009F93AF93BF93EF93FF93E0918E00F091F1
:1005B0008F00309709F00995FF91EF91BF91AF91AE
:1005C0009F918F917F916F915F914F913F912F916B
:1005D0000F900FBE0F901F9018951F920F920FB69D
:1005E0000F9211242F933F934F935F936F937F93B9
:1005F0008F939F93AF93BF93EF93FF93E0918C0002
:10060000F0918D00309709F00995FF91EF91BF911E
:10061000AF919F918F917F916F915F914F913F919A
:100620002F910F900FBE0F901F9018951F920F9251
:100630000FB60F9211242F933F934F935F936F93B5
:100640007F938F939F93AF93BF93EF93FF93E0912B
:100650009A00F0919B00309709F00995FF91EF9176
:10066000BF91AF919F918F917F916F915F914F91CA
:100670003F912F910F900FBE0F901F9018951F92D2
:100680000F920FB60F9211242F933F934F935F93C6
:100690006F937F938F939F93AF93BF93EF93FF934A
:1006A000E0919800F0919900309709F00995FF9139
:1006B000EF91BF91AF919F918F917F916F915F91DA
:1006C0004F913F912F910F900FBE0F901F90189553
:1006D0001F920F920FB60F9211242F933F934F93B7
:1006E0005F936F937F938F939F93AF93BF93EF939A
:1006F000FF93E0919600F0919700309709F00995EB
:10070000FF91EF91BF91AF919F918F917F916F91E9
:100710005F914F913F912F910F900FBE0F901F90BF
:1007200018951F920F920FB60F9211242F933F939B
:100730004F935F936F937F938F939F93AF93BF93E9
:10074000EF93FF93E0919400F0919500309709F0BA
:100750000995FF91EF91BF91AF919F918F917F91FB
:100760006F915F914F913F912F910F900FBE0F901E
:100770001F9018951F920F920FB60F9211242F936E
:100780003F934F935F936F937F938F939F93AF9319
:10079000BF93EF93FF93E0919200F0919300309715
:1007A00009F00995FF91EF91BF91AF919F918F91C2
:1007B0007F916F915F914F913F912F910F900FBE5D
:1007C0000F901F9018951F920F920FB60F92112441
:1007D0002F933F934F935F936F937F938F939F9349
:1007E000AF93BF93EF93FF93E0919E00F0919F0032
:1007F000309709F00995FF91EF91BF91AF919F91CB
:100800008F917F916F915F914F913F912F910F90B9
:100810000FBE0F901F9018951F920F920FB60F9258
:1008200011242F933F934F935F936F937F938F93F5
:100830009F93AF93BF93EF93FF93E0919C00F09150
:100840009D00309709F00995FF91EF91BF91AF910D
:100850009F918F917F916F915F914F913F912F91D8
:0E0860000F900FBE0F901F901895F894FFCFC9
:10086E00000000000000000000000000000000007A
:10087E00000000000000000002020202020202025A
:0C088E00101112130001020313141516C0
:00000001FF
